:10009A002041298201819484B4A404820181948438
:1000AA00C4B404820181F4D4B4A494E201E1D4B4C6
:1000BA00C4B4048201819484B4A404820181948426
:1000CA00C4B404820181F4D4B4A494E201E1D4B4A6
:1000DA00C4B404001E08FB04FB90FC09FC44FCACFD
:1000EA00FD09FD34FD82FDC8FE06FE22FE56FE8590
:0400FA00FE9AFEC1AB
:03000B0002017E71
:09017E0085288A85278CB2903295
:0E016F00E4FFFE0FBF00010EBE4EF8BF20F5EC
:01017D00225F
:04015600AD07AC063F
:10015A00E4FBEBD39DEC6480F8748098500612019E
:04016A006F0B80EEA9
:01016E00226E
:1000FF00E4FA75890175A88274292AF8E6604474B8
:10010F00292AF8E6FF540FF5267804EF088001231B
:10011F00D8FD540FFF60201FEF25E004FEEF25E010
:10012F00FF74082EF8E6F58AF52874082FF8E6F51F
:10013F008CF527D28C8002C28CAF267E001201561E
:07014F000A80B5C28C80ABF1
:0300000002000EED
:0C000E00787FE4F6D8FD7581690200558A
:10001A000200FFE493A3F8E493A34003F68001F2FD
:10002A0008DFF48029E493A3F85407240CC8C333E7
:10003A00C4540F4420C8834004F456800146F6DFB6
:10004A00E4800B010204081020408090009AE47EAC
:10005A00019360BCA3FF543F30E509541FFEE493AB
:10006A00A360010ECF54C025E060A840B8E493A372
:10007A00FAE493A3F8E493A3C8C582C8CAC583CA9D
:10008A00F0A3C8C582C8CAC583CADFE9DEE780BE55
:0100FE000001
:00000001FF
