:100446005245534554002020202020200053554378
:10045600434553530020202020202020004F5045A4
:0B0466004E21004661696C65642100B6
:1004D2000C0B000100020003000400050006011DD0
:0404E20001010866A6
:10025B00EF644160030203117BFF7A0479467D0151
:10026B007F021204717BFF7A04794C7D017F0112AE
:10027B000471751D01E4F51EAF1EEF3395E0FEC34F
:10028B00EF9406EE64809480402E7BFF7A047953C2
:10029B007D017F0212047112051B7BFF7A04795BCF
:1002AB007D017F021204717BFF7A04795B7D017FF4
:1002BB0001120471751D01221203128F0AEF64647F
:1002CB0060B6E50AB4420F151EE51E04FD7B207FC8
:1002DB000112054E80A2C3E50A940A74809480E54E
:1002EB001E04FD5007E50A2430FB8002AB0A7F0198
:1002FB0012054EAF0AE51E25E0240BF8760008A682
:07030B0007051E0202832218
:1004FB00C2AFD2A9758901758C18758AFCD28C2272
:03000300D2AF2257
:03000600C2AF2264
:03000B0002055893
:09055800758CF8758A8CB2B03282
:10000E001204FB1204E7C2B71203128F09EF6464E5
:10001E0060F6E508B4740812025B75086680E9E5BF
:10002E0009B4420D151D7B20AD1D7F0112054E80BA
:10003E00D7AF1DEF3395E0FED3EF9406EE648094B8
:10004E00805026C3E509940A748094805007E50910
:10005E002430FB8002AB09AD1D7F0112054E7416D4
:10006E00251DF8A609051D809FE50964447099AF0A
:10007E0017EF3395E0FEEF650C7003EE650B707AAB
:10008E00AF18EF3395E0FEEF650E7003EE650D7061
:10009E0069AF19EF3395E0FEEF65107003EE650F53
:1000AE007058AF1AEF3395E0FEEF65127003EE65F0
:1000BE00117047AF1BEF3395E0FEEF65147003EE42
:1000CE0065137036AF1CEF3395E0FEEF65167003C7
:1000DE00EE651570257BFF7A0479637D017F021230
:1000EE000471D2B775087412000312051B120006B4
:1000FE00C2B77BFF7A04794C80167BFF7A0479694C
:10010E007D017F0212047112051B7BFF7A04795B5D
:10011E007D017F021204717BFF7A04794C7D017F91
:0A012E0001120471751D0102001694
:06052B00C2A58F80D2A7DB
:080531007F027EEFDEFEDFFC1D
:01053900229F
:0A053A00C2A612052BC2A70205316C
:0A054400D2A612052BC2A702053152
:1004B400AE07EEFB7A0064017004ED148009EB646E
:0E04C400024A7009ED243F4480FF12053A22DF
:1004E7007F3812053A7F0C12053A7F0612053A7FCC
:0404F7000102053ABF
:0A054E00AC031204B4AF040205442C
:060471008B1F8A20892187
:100477001204B4E4FDAB1FAA20A9218D8275830065
:0C04870012022EFF60061205440D80E9F1
:010493002246
:10050B000102034104050642070809432A0023445C
:10031200781F7C007D007BFF7A05790B7E007F10C1
:10032200120208752F647590F0AF90EF64F0607759
:100332007F0A120494AF90EF64F0606B7590F0AF97
:1003420090EF2450601124E0601224F060132470B6
:100352007012752F01800D752F058008752F098089
:1003620003752F0D75900FAF90EF24F5601424FEE6
:10037200601B1460252407702EAF90EF640F602776
:1003820080F7052FAF90EF640F601C80F7052F05F3
:100392002FAF90EF640F600F80F77403252FF52FB6
:1003A200AF90EF640F70F9E52F646470037F6422ED
:0703B200741E252FF8E6FF81
:0103B9002221
:0F051B000000007F2A7EFC7D09DDFEDEFCDFFA9A
:01052A0022AE
:0D049400E4FEC3EF6480F8EE64809850121F
:0F04A10000000075300B7531BED531FDD530FA36
:0304B0000E80E3D8
:0104B3002226
:030000000203BA3E
:0C03BA00787FE4F6D8FD75813102040163
:10013800E709F608DFFA8046E709F208DFFA803EA9
:1001480088828C83E709F0A3DFFA8032E309F60896
:10015800DFFA8078E309F208DFFA807088828C83FE
:10016800E309F0A3DFFA806489828A83E0A3F608B2
:10017800DFFA805889828A83E0A3F208DFFA804C8C
:1001880080D280FA80C680D4806980F28033801063
:1001980080A680EA809A80A880DA80E280CA8033CC
:1001A80089828A83ECFAE493A3C8C582C8CCC58344
:1001B800CCF0A3C8C582C8CCC583CCDFE9DEE78014
:1001C8000D89828A83E493A3F608DFF9ECFAA9F093
:1001D800EDFB2289828A83ECFAE0A3C8C582C8CCE9
:1001E800C583CCF0A3C8C582C8CCC583CCDFEADE02
:1001F800E880DB89828A83E493A3F208DFF980CC64
:1002080088F0EF60010E4E60C388F0ED2402B4045C
:100218000050B9F582EB2402B4040050AF23234503
:060228008223900188739F
:10022E00BB010CE58229F582E5833AF583E0225085
:10023E0006E92582F8E622BBFE06E92582F8E222CF
:0D024E00E58229F582E5833AF583E49322E9
:1003C60002000EE493A3F8E493A34003F68001F23F
:1003D60008DFF48029E493A3F85407240CC8C33338
:1003E600C4540F4420C8834004F456800146F6DF07
:1003F600E4800B01020408102040809004D2E47EC1
:10040600019360BCA3FF543F30E509541FFEE493FB
:10041600A360010ECF54C025E060A840B8E493A3C2
:10042600FAE493A3F8E493A3C8C582C8CAC583CAED
:10043600F0A3C8C582C8CAC583CADFE9DEE780BEA5
:0104E6000015
:00000001FF
